:100000000C946D000C948A000C948A000C94D70414
:100010000C9435040C948A000C948A000C948A0089
:100020000C948A000C948A000C948A000C948A0028
:100030000C948A000C948A000C948A000C948A0018
:100040000C941D050C948A000C9441060C948A00B3
:100050000C948A000C9473050C948A000C948A000A
:100060000C948A000C948A0033042304250427048A
:1000700029042B042D042F0431046606740682061D
:100080009006B006BE06CC06EC06FA06080728075E
:10009000360744076407B908C508D108DD08E90830
:1000A000F50801090D09AF09B609BD09C409CB0955
:1000B000D209D909E0091C0A270A350A430A510A5C
:1000C0005F0A6D0A760AA00AA60AAC0AB20AB80A42
:1000D000C30ACE0AD90AE40AEF0A11241FBECFEFE1
:1000E000D8E0DEBFCDBF11E0A0E0B1E0ECE5FCE17F
:1000F00002C005900D92AA30B107D9F721E0AAE01D
:10010000B1E001C01D92AB31B207E1F70E940E01D0
:100110000C942C0E0C94000060E082E00E94BA0760
:1001200061E082E00E94BA0762E082E00E94BA07C2
:1001300063E082E00E94BA0765E081E00E94BA07AE
:1001400064E081E00E94190960E081E00E941909E1
:1001500064E083E00E94190984E00E94120A85E0AD
:100160000E94120A86E00E94120A87E00E94120A88
:1001700028E041E060E875E280E090E00E94270C12
:1001800020E034E040E061E088E00E94920A20E054
:1001900034E041E061E088E00E94920A88E391E067
:1001A000909387008093860020E034E040E061E097
:1001B00085E00E94710B20E034E041E061E085E0E1
:1001C0000E94710B6AEF80E094E00E94E7090895B5
:1001D00080911101813071F018F08230A9F00895FA
:1001E00085B1806185B985B18E7F85B98BB18F7EF0
:1001F0008BB9089585B18F7E85B985B1816085B948
:100200008BB18F7E8BB9089585B18F7E85B985B10D
:100210008E7F85B98BB180618BB90895F8940E9467
:100220008C0078940E94E80060911901CDEC6C9FDD
:10023000612D112466956695669570E080E090E0EA
:100240000E945C0D20E030E048E451E40E94BF0CC5
:100250000E942B0D709389006093880060911701B4
:100260006C9F612D112466956695669570E080E01F
:1002700090E00E945C0D20E030E048E451E40E94F0
:10028000BF0C0E942B0D70938B0060938A006091CD
:1002900015016C9F612D112466956695669570E039
:1002A00080E090E00E945C0D20E030E048E451E402
:1002B0000E94BF0C0E942B0D6093B300609113014C
:1002C0006C9F612D112466956695669570E080E0BF
:1002D00090E00E945C0D20E030E048E451E40E9490
:1002E000BF0C0E942B0D6093B4009CCF9091C00076
:1002F00095FFFCCF8093C6000895AF92BF92CF9236
:10030000DF92EF92FF920F931F93CF93DF93C62F4D
:10031000A42EB22EE82FF0E0E050FF4F80810E9423
:100320007601C0930D0180910D010F2EF9E2DF2EB1
:10033000F02D8D9D812D112482958F7080930C015D
:1003400030910D0120910C011CE91203C001112410
:10035000830F911DCAE0D0E0BE010E94E80D6093BA
:100360000B0120910D0130910C0180910B010F2E9A
:10037000F4E6FF2EF02D880F982F990F990F890F13
:100380003F9D800D1124281B20930A01E0910C0150
:10039000F0E0E050FF4F80810E947601E0910B0178
:1003A000F0E0E050FF4F80810E947601E0910A0169
:1003B000F0E0E050FF4F80810E947601A0920D0195
:1003C00080910D018D9D812D112482958F708093D8
:1003D0000C0130910D0120910C011203C001112478
:1003E000830F911DBE010E94E80D60930B012091C7
:1003F0000D0130910C0180910B01880F982F990FFE
:10040000990F890F3F9D800D1124281B20930A010D
:10041000E0910C01F0E0E050FF4F80810E947601F6
:10042000E0910B01F0E0E050FF4F80810E947601E7
:10043000E0910A01F0E0E050FF4F80810E947601D8
:10044000B0920D0180910D018D9D812D1124829519
:100450008F7080930C0130910D0120910C011203DB
:10046000C0011124830F911DBE010E94E80D60930D
:100470000B0120910D0130910C0180910B01880F2F
:10048000982F990F990F890F3F9D800D1124281BDC
:1004900020930A01E0910C01F0E0E050FF4F8081D1
:1004A0000E947601E0910B01F0E0E050FF4F808167
:1004B0000E947601E0910A01F0E0E050FF4F808158
:1004C0000E94760100930D0180910D018D9D812D7B
:1004D000112482958F7080930C0120910D01309131
:1004E0000C011303C0011124820F911DBE010E9453
:1004F000E80D60930B0120910D0130910C0180916A
:100500000B01880F982F990F990F890F3F9D800D30
:100510001124281B20930A01E0910C01F0E0E05027
:10052000FF4F80810E947601E0910B01F0E0E050E6
:10053000FF4F80810E947601E0910A01F0E0E050D7
:10054000FF4F80810E947601EE2DF0E0E050FF4FDA
:1005500080810E947601EC2DF0E0E050FF4F808119
:100560000E947601DF91CF911F910F91FF90EF9044
:10057000DF90CF90BF90AF900895F894813009F448
:10058000E5C008F473C0823009F04FC1623019F140
:1005900018F4613039F049C16330B1F1643009F4C5
:1005A0004CC043C180E090E00E94160E8093190178
:1005B00081E090E00E94160E8093170182E090E0A7
:1005C0000E94160E8093150183E090E00E94160EA3
:1005D000809313012AC184E090E00E94160E80935C
:1005E000190185E090E00E94160E8093170186E0C5
:1005F00090E00E94160E8093150187E090E00E9423
:10060000160E8093130111C188E090E00E94160E2F
:100610008093190189E090E00E94160E80931701E3
:100620008AE090E00E94160E809315018BE090E026
:100630000E94160E80931301F8C08CE090E00E9497
:10064000160E809319018DE090E00E94160E8093A3
:1006500017018EE090E00E94160E809315018FE046
:1006600090E00E94160E80931301DFC0623019F1F2
:1006700018F4613039F0D9C06330B1F1643009F455
:100680004CC0D3C06091190180E090E00E941E0E22
:100690006091170181E090E00E941E0E60911501AB
:1006A00082E090E00E941E0E6091130183E090E0D2
:1006B0000E941E0EBAC06091190184E090E00E9471
:1006C0001E0E6091170185E090E00E941E0E609161
:1006D000150186E090E00E941E0E6091130187E0F4
:1006E00090E00E941E0EA1C06091190188E090E088
:1006F0000E941E0E6091170189E090E00E941E0E7C
:10070000609115018AE090E00E941E0E6091130135
:100710008BE090E00E941E0E88C0609119018CE071
:1007200090E00E941E0E609117018DE090E00E9403
:100730001E0E609115018EE090E00E941E0E6091E9
:1007400013018FE090E00E941E0E6FC0623019F11D
:1007500018F4613039F069C06330B1F1643009F4E4
:100760004CC063C06091190180E090E00E941E0EB1
:100770006091170181E090E00E941E0E60911501CA
:1007800082E090E00E941E0E6091130183E090E0F1
:100790000E941E0E4AC06091190184E090E00E9400
:1007A0001E0E6091170185E090E00E941E0E609180
:1007B000150186E090E00E941E0E6091130187E013
:1007C00090E00E941E0E31C06091190188E090E017
:1007D0000E941E0E6091170189E090E00E941E0E9B
:1007E000609115018AE090E00E941E0E6091130155
:1007F0008BE090E00E941E0E18C0609119018CE001
:1008000090E00E941E0E609117018DE090E00E9422
:100810001E0E609115018EE090E00E941E0E609108
:1008200013018FE090E00E941E0E7894089590E0EE
:10083000FC01F197E930F10520F4EC5CFF4F0C94DA
:10084000FC0D80E0089582E0089583E0089584E03F
:10085000089585E0089586E0089587E0089588E08A
:10086000089589E0089581E008951F920F920FB6D0
:100870000F921124CF92EF920F932F933F934F93A8
:100880005F936F937F938F939F93AF93BF93EF93F8
:10089000FF938091110121E0823009F020E091E086
:1008A000811190E0922B09F46BC0309919C091E04E
:1008B00090930F0161E00E94BD020F2EF5E0CF2E54
:1008C000F02DE0900F01009113012091150140914E
:1008D000170160911901809111010E947D0150C0A2
:1008E000319919C092E090930F0162E00E94BD021D
:1008F0000F2EF5E0CF2EF02DE0900F0100911301A7
:100900002091150140911701609119018091110109
:100910000E947D0135C0329919C093E090930F0178
:1009200063E00E94BD020F2EF5E0CF2EF02DE09087
:100930000F01009113012091150140911701609161
:100940001901809111010E947D011AC0339918C0CC
:1009500094E090930F0164E00E94BD020F2EF5E039
:10096000CF2EF02DE0900F01009113012091150181
:100970004091170160911901809111010E947D0140
:100980008BB382608BBBFF91EF91BF91AF919F9131
:100990008F917F916F915F914F913F912F910F9127
:1009A000EF90CF900F900FBE0F901F9018951F9251
:1009B0000F920FB60F921124CF92EF920F932F93B5
:1009C0003F934F935F936F937F938F939F93AF93D7
:1009D000BF93EF93FF931D9919C0809111018F5F11
:1009E00080931101833011F41092110110920F01C4
:1009F000C12CE12C009113012091150140911701A8
:100A000060911901809111010E947D018BB3816079
:100A10008BBBFF91EF91BF91AF919F918F917F9190
:100A20006F915F914F913F912F910F91EF90CF90E8
:100A30000F900FBE0F901F9018951F920F920FB638
:100A40000F9211248F93EF93FF93809111018111E5
:100A50003DC080911A01813091F028F08230D9F0A8
:100A6000833029F12EC0ECE7F0E08081887F80831D
:100A700080818460808381E080931A0122C0ECE74A
:100A8000F0E08081887F808380818560808382E040
:100A900080931A0116C0ECE7F0E08081887F8083A4
:100AA00080818660808383E080931A010AC0ECE72E
:100AB000F0E08081887F80838081876080831092CE
:100AC0001A01EAE7F0E08081806480838AEF86BDC6
:100AD00085B3816085BBFF91EF918F910F900FBE21
:100AE0000F901F9018951F920F920FB60F9211241E
:100AF000CF92EF920F932F933F934F935F936F9308
:100B00007F938F939F93AF93BF93EF93FF938091C6
:100B10001A01813041F008F477C0823049F1833006
:100B200009F44CC095C0809119018093180160911F
:100B30007900609319012DEC629F912D11249695F7
:100B40009695829F812D112486958695981709F494
:100B50007FC0CC24C394E0900F0100911301209139
:100B6000150140911701809111010E947D0170C013
:100B700080911701809316014091790040931701ED
:100B80002DEC429F912D112496959695829F812D53
:100B9000112486958695981709F45AC06894CC2438
:100BA000C1F8E0900F0100911301209115016091AF
:100BB0001901809111010E947D014AC09091150197
:100BC0009093140120917900209315018DEC989F4A
:100BD000912D112496959695289F812D1124869507
:100BE00086959817A9F10F2EF3E0CF2EF02DE09007
:100BF0000F0100911301409117016091190180913B
:100C000011010E947D0124C0809113018093120183
:100C100000917900009313012DEC029F912D112476
:100C200096959695829F812D112486958695981785
:100C300079F06894CC24C2F8E0900F01209115015E
:100C40004091170160911901809111010E947D016D
:100C5000EAE7F0E0808180618083FF91EF91BF91AE
:100C6000AF919F918F917F916F915F914F913F9144
:100C70002F910F91EF90CF900F900FBE0F901F907C
:100C800018951F920F920FB60F9211242F933F9336
:100C90004F935F936F937F938F939F93AF93BF9384
:100CA000CF93DF93EF93FF93C0911101C13009F00F
:100CB0001BC1D09110018D2F90E08E30910508F06E
:100CC00013C1FC01E35CFF4F0C94FC0D8091C60046
:100CD00080930E0180910E010E94170480931101F0
:100CE000DF5FD093100100C18091C60080930E0198
:100CF00080910E010E94170480930C01DF5FD09356
:100D00001001F2C08091C60080930E0180910E0107
:100D10000E94170480930B01DF5FD0931001E4C0A1
:100D20008091C60080930E0180910E010E941704ED
:100D300080930A0130910C0180910B0120910A01EE
:100D4000880F982F990F990F890F94E6399F800D7E
:100D50001124820F80931901DF5FD0931001C4C06A
:100D60008091C60080930E0180910E010E941704AD
:100D700080930C01DF5FD0931001B6C08091C60054
:100D800080930E0180910E010E94170480930B0145
:100D9000DF5FD0931001A8C08091C60080930E0140
:100DA00080910E010E94170480930A0130910C017A
:100DB00080910B0120910A01880F982F990F990FAC
:100DC000890F94E6399F800D1124820F80931701BB
:100DD000DF5FD093100188C08091C60080930E0120
:100DE00080910E010E94170480930C01DF5FD09365
:100DF00010017AC08091C60080930E0180910E018F
:100E00000E94170480930B01DF5FD09310016CC028
:100E10008091C60080930E0180910E010E941704FC
:100E200080930A0130910C0180910B0120910A01FD
:100E3000880F982F990F990F890F94E6399F800D8D
:100E40001124820F80931501DF5FD09310014CC0F5
:100E50008091C60080930E0180910E010E941704BC
:100E600080930C01DF5FD09310013EC08091C600DB
:100E700080930E0180910E010E94170480930B0154
:100E8000DF5FD093100130C08091C60080930E01C7
:100E900080910E010E94170480930A0130910C0189
:100EA00080910B0120910A01880F982F990F990FBB
:100EB000890F94E6399F800D1124820F80931301CE
:100EC000DF5FD093100110C08091C60080930E01A7
:100ED00080910E010E94170480930F01682F8C2FC0
:100EE0000E94BD0210921001C0911101C23039F56B
:100EF000D0911001DD2319F0DD3079F01DC0809113
:100F0000C60080930E0180910E010E941704809309
:100F10001101DF5FD093100112C08091C600809351
:100F20000E0180910E010E94170480930F01682F1B
:100F30008C2F0E94BD0203C0DF5FD093100180910F
:100F40001101811104C08091C60080930E01FF91B0
:100F5000EF91DF91CF91BF91AF919F918F917F9151
:100F60006F915F914F913F912F910F900FBE0F9016
:100F70001F901895843071F5623091F06330E9F07C
:100F8000613009F055C114B89FEF95B9E8E6F0E07B
:100F9000808181608083EBE6F0E08081908308951A
:100FA00017B89FEF98B9E8E6F0E08081826080830F
:100FB000ECE6F0E08081908308951AB89FEF9BB92A
:100FC000E8E6F0E0808184608083EDE6F0E08081F7
:100FD00090830895813009F05BC0A8E6B0E08C9161
:100FE00081608C93623021F128F4662349F06130EE
:100FF00099F008956430A1F138F16530E9F1089570
:1010000084B18E7F84B985B1816085B9EBE6F0E06B
:10101000808181608083089584B18D7F84B985B19A
:10102000826085B9EBE6F0E080818260808308957C
:1010300084B18B7F84B985B1846085B9EBE6F0E03B
:10104000808184608083089584B1877F84B985B16D
:10105000886085B9EBE6F0E0808188608083089540
:1010600084B18F7E84B985B1806185B9EBE6F0E00B
:10107000808180618083089584B18F7D84B985B13A
:10108000806285B9EBE6F0E080818062808308951C
:10109000823009F05BC0A8E6B0E08C9182608C934E
:1010A000623021F128F4662349F0613099F0089507
:1010B0006430A1F138F16530E9F1089587B18E7F90
:1010C00087B988B1816088B9ECE6F0E08081816001
:1010D0008083089587B18D7F87B988B1826088B990
:1010E000ECE6F0E0808182608083089587B18B7F99
:1010F00087B988B1846088B9ECE6F0E080818460CB
:101100008083089587B1877F87B988B1886088B95F
:10111000ECE6F0E0808188608083089587B18F7E5F
:1011200087B988B1806188B9ECE6F0E080818061A0
:101130008083089587B18F7D87B988B1806288B92F
:10114000ECE6F0E08081806280830895833009F0CE
:101150006FC0A8E6B0E08C9184608C93862F90E0FD
:101160008830910508F064C0FC01E55BFF4F0C94EA
:10117000FC0D8AB18E7F8AB98BB181608BB9EDE6A7
:10118000F0E080818160808308958AB18D7F8AB983
:101190008BB182608BB9EDE6F0E080818260808364
:1011A00008958AB18B7F8AB98BB184608BB9EDE6E3
:1011B000F0E080818460808308958AB1877F8AB956
:1011C0008BB188608BB9EDE6F0E080818860808328
:1011D00008958AB18F7E8AB98BB180618BB9EDE6B3
:1011E000F0E080818061808308958AB18F7D8AB923
:1011F0008BB180628BB9EDE6F0E080818062808304
:1012000008958AB18F7B8AB98BB180648BB9EDE682
:10121000F0E080818064808308958AB18F778AB9F5
:101220008BB180688BB9EDE6F0E0808180688083C7
:101230000895843099F4623049F0633059F0613098
:1012400009F0C4C08FEF84B915B808958FEF87B93E
:1012500018B808958FEF8AB91BB808958130C1F589
:101260006230D1F028F4662349F0613071F00895BE
:10127000643001F1C0F0653021F1089584B18160DE
:1012800084B985B18E7F85B9089584B1826084B9AF
:1012900085B18D7F85B9089584B1846084B985B1A5
:1012A0008B7F85B9089584B1886084B985B1877FC3
:1012B00085B9089584B1806184B985B18F7E85B97F
:1012C000089584B1806284B985B18F7D85B9089510
:1012D0008230C1F56230D1F028F4662349F06130E4
:1012E00071F00895643001F1C0F0653021F1089586
:1012F00087B1816087B988B18E7F88B9089587B139
:10130000826087B988B18D7F88B9089587B184607C
:1013100087B988B18B7F88B9089587B1886087B90C
:1013200088B1877F88B9089587B1806187B988B10E
:101330008F7E88B9089587B1806287B988B18F7D23
:1013400088B90895833009F041C0862F90E0883035
:101350009105E0F5FC01ED5AFF4F0C94FC0D8AB1AC
:1013600081608AB98BB18E7F8BB908958AB1826012
:101370008AB98BB18D7F8BB908958AB184608AB99F
:101380008BB18B7F8BB908958AB188608AB98BB194
:10139000877F8BB908958AB180618AB98BB18F7EBE
:1013A0008BB908958AB180628AB98BB18F7D8BB970
:1013B00008958AB180648AB98BB18F7B8BB9089507
:1013C0008AB180688AB98BB18F778BB908958034E0
:1013D0009105B1F028F4009759F0089769F01BC007
:1013E000811521E0920781F08115944089F013C0A6
:1013F00085B5816085BD0FC085B5826085BD0BC098
:1014000085B5836085BD07C085B5846085BD03C093
:1014100085B5856085BD66BDEEE6F0E080818160C2
:101420008083089590E08830910508F067C0FC0142
:10143000E55AFF4F0C94FC0DEEE7F0E080818160EF
:101440008083ECE7F0E08081887F808357C0ECE701
:10145000F0E08081887F8083808181608083EEE7F7
:10146000F0E080818260808349C0ECE7F0E0808119
:10147000887F8083808182608083EEE7F0E08081D6
:10148000846080833BC0ECE7F0E08081887F8083CC
:10149000808183608083EEE7F0E0808188608083D4
:1014A0002DC0ECE7F0E08081887F808380818460BC
:1014B0008083EEE7F0E08081806180831FC0ECE7ED
:1014C000F0E08081887F8083808185608083EEE783
:1014D000F0E080818062808311C0ECE7F0E08081E1
:1014E000887F808380818660808308C0ECE7F0E09D
:1014F0008081887F8083808187608083ECE7F0E053
:10150000808180628083808180648083EAE7F0E06C
:10151000808188608083808187608083808180680B
:10152000808308950F931F93D901082F10E00A308C
:10153000110508F05EC0F801ED59FF4F0C94FC0D49
:10154000E0E8F0E090819160908353C0E0E8F0E043
:101550009081926090834DC0E0E8F0E090819360CC
:10156000908347C0E1E8F0E090819061908341C0B2
:10157000E1E8F0E0908190619083E0E8F0E0908114
:101580009860908336C0E1E8F0E0908198609083A5
:10159000E0E8F0E09081916090832BC0E1E8F0E01A
:1015A000908198609083E0E8F0E090819260908371
:1015B00020C0E1E8F0E0908198609083E0E8F0E0FE
:1015C00090819360908315C0E1E8F0E0908198618C
:1015D0009083E0E8F0E09081926090830AC0E1E8B7
:1015E000F0E0908198619083E0E8F0E09081936072
:1015F000908351E02BEF280F223008F050E031E0CB
:10160000873009F030E091E0883009F090E021E087
:10161000893009F020E0352B932B11F4222381F13E
:10162000442319F04130B9F02BC0662341F06130FA
:1016300059F4E0E8F0E080818068808305C0E0E84C
:10164000F0E08081806C808384B1826084B985B150
:101650008D7F85B915C0662341F0613059F4E0E80B
:10166000F0E080818062808305C0E0E8F0E0808166
:101670008063808384B1846084B985B18B7F85B9B0
:10168000A034B105D1F028F4109759F0189779F0EB
:1016900025C0A11581E0B807B1F0A115B440C9F08B
:1016A0001DC0E1E8F0E080818160808317C0E1E83F
:1016B000F0E080818260808311C0E1E8F0E0808109
:1016C000836080830BC0E1E8F0E0808184608083E8
:1016D00005C0E1E8F0E08081856080831F910F9173
:1016E0000895843079F018F4882331F026C08530CD
:1016F000A1F08930C1F021C0E0EBF0E09081916071
:1017000090831BC0E1EBF0E0908191609083E0EB6F
:10171000F0E090819860908310C0E0EBF0E0908161
:10172000936090830AC0E1EBF0E090819860908331
:10173000E0EBF0E0908193609083E1E07BEF780F45
:10174000723008F0E0E051E0873009F050E091E0BD
:10175000883009F090E071E0893009F070E05E2B8C
:10176000952B11F4772381F1442319F04130B9F01E
:101770002BC0662341F0613059F4E0EBF0E080814A
:101780008068808305C0E0EBF0E08081806C80831E
:1017900084B1886084B985B1877F85B915C0662317
:1017A00041F0613059F4E0EBF0E0808180628083A9
:1017B00005C0E0EBF0E08081806380838AB18860BF
:1017C0008AB98BB1877F8BB92034310541F148F458
:1017D00028303105C1F020323105D9F0232BB1F585
:1017E0000CC0211581E0380731F1211584E038075C
:1017F00041F12038310551F518C0E1EBF0E080816E
:10180000816080830895E1EBF0E0808182608083D5
:101810000895E1EBF0E08081836080830895E1EB3F
:10182000F0E08081846080830895E1EBF0E08081C6
:10183000856080830895E1EBF0E08081866080839D
:101840000895E1EBF0E08081876080830895DC01FA
:10185000E1ECF0E0908198699083109719F011976E
:1018600099F163C0603C82E17807A1F020F4603612
:10187000794049F023C0603885E2780791F0603400
:101880007843B1F01BC080EA91E09093C50080934B
:10189000C40014C08FEC90E09093C5008093C40006
:1018A0000DC087E690E09093C5008093C40006C009
:1018B00084E490E09093C5008093C400E0ECF0E0F5
:1018C00080818D7F808331C0603C82E17807A1F008
:1018D00020F46036794049F023C0603885E278070B
:1018E00091F060347843B1F01BC080E493E09093B2
:1018F000C5008093C40014C080EA91E09093C500B5
:101900008093C4000DC08FEC90E09093C50080934D
:10191000C40006C08AE890E09093C5008093C4009C
:10192000E0ECF0E0808182608083423029F0433037
:1019300049F0413091F40CC0E2ECF0E0808180622B
:1019400080830BC0E2ECF0E080818063808305C07F
:10195000E2ECF0E080818F7C8083273019F0283022
:1019600039F00895E2ECF0E080818460808308958E
:10197000E2ECF0E080818660808308955058BB27B8
:10198000AA270E94D60C0C94AE0D0E94A00D38F030
:101990000E94A70D20F039F49F3F19F426F40C940F
:1019A0009D0D0EF4E095E7FB0C94970DE92F0E9436
:1019B000BF0D58F3BA17620773078407950720F025
:1019C00079F4A6F50C94E10D0EF4E0950B2EBA2FE8
:1019D000A02D0B01B90190010C01CA01A001112435
:1019E000FF27591B99F0593F50F4503E68F11A16E1
:1019F000F040A22F232F342F4427585FF3CF469572
:101A000037952795A795F0405395C9F77EF41F1693
:101A1000BA0B620B730B840BBAF09150A1F0FF0F5D
:101A2000BB1F661F771F881FC2F70EC0BA0F621F49
:101A3000731F841F48F4879577956795B795F79539
:101A40009E3F08F0B0CF9395880F08F09927EE0FCE
:101A50009795879508950E94C70D88F09F5798F035
:101A6000B92F9927B751B0F0E1F0660F771F881FA3
:101A7000991F1AF0BA95C9F714C0B13091F00E94BD
:101A8000E10DB1E008950C94E10D672F782F8827C0
:101A9000B85F39F0B93FCCF3869577956795B395E4
:101AA000D9F73EF490958095709561957F4F8F4F53
:101AB0009F4F0895E89409C097FB3EF49095809558
:101AC000709561957F4F8F4F9F4F9923A9F0F92F04
:101AD00096E9BB279395F695879577956795B79582
:101AE000F111F8CFFAF4BB0F11F460FF1BC06F5F68
:101AF0007F4F8F4F9F4F16C0882311F096E911C07A
:101B0000772321F09EE8872F762F05C0662371F09A
:101B100096E8862F70E060E02AF09A95660F771FAE
:101B2000881FDAF7880F9695879597F9089597F9A2
:101B30009F6780E870E060E008959FEF80EC089573
:101B400000240A941616170618060906089500249C
:101B50000A9412161306140605060895092E039416
:101B6000000C11F4882352F0BB0F40F4BF2B11F48A
:101B700060FF04C06F5F7F4F8F4F9F4F089557FDE9
:101B80009058440F551F59F05F3F71F04795880FEB
:101B900097FB991F61F09F3F79F087950895121682
:101BA00013061406551FF2CF4695F1DF08C016162E
:101BB00017061806991FF1CF8695710561050894DF
:101BC0000895E894BB2766277727CB0197F90895F6
:101BD00097FB072E16F4009407D077FD09D00E94DA
:101BE000020E07FC05D03EF4909581959F4F089515
:101BF000709561957F4F0895EE0FFF1F0590F4914A
:101C0000E02D0994AA1BBB1B51E107C0AA1FBB1FF3
:101C1000A617B70710F0A61BB70B881F991F5A9578
:101C2000A9F780959095BC01CD010895F999FECF53
:101C300092BD81BDF89A992780B50895262FF9990C
:101C4000FECF1FBA92BD81BD20BD0FB6F894FA9A9F
:0C1C5000F99A0FBE01960895F894FFCF9A
:0A1C5C003031323334353637383971
:00000001FF
