:100000000C944E000C9460000C9460000C94600002
:100010000C94F3010C9460000C9460000C9460004C
:100020000C9460000C9460000C9460000C946000D0
:100030000C9460000C9460000C9460000C946000C0
:100040000C9460000C9460000C9460000C946000B0
:100050000C9460000C9460000C9460000C946000A0
:100060000C9460000C9460002903350341034D0398
:100070005903650371037D0323042A043104380402
:100080003F0446044D04540465046C0473047A046C
:10009000810488048F0496049D04A10411241FBECA
:1000A000CFEFD8E0DEBFCDBF21E0A0E0B1E001C0DE
:1000B0001D92A330B207E1F70E9445010C94090597
:1000C0000C94000060E082E00E942A0261E082E07D
:1000D0000E942A0262E082E00E942A0263E084E039
:1000E0000E94890361E084E00E9489030895809161
:1000F0000101823069F128F4882349F08130B1F0A0
:1001000008958330B9F1843009F446C008958BB165
:100110001BB885B1826085B98FE19EE40197F1F744
:1001200000C0000085B18D7F85B908958BB11BB8E3
:100130008BB181608BB985B1826085B98FE19EE416
:100140000197F1F700C0000085B18D7F85B9089552
:100150008BB11BB88BB183608BB985B1826085B9D7
:100160008FE19EE40197F1F700C0000085B18D7F1B
:1001700085B908958BB11BB88BB187608BB985B1F8
:10018000826085B98FE19EE40197F1F700C000001D
:1001900085B18D7F85B908958BB11BB88BB18F6008
:1001A0008BB985B1826085B98FE19EE40197F1F743
:1001B00000C0000085B18D7F85B908958091000150
:1001C000823069F128F4882349F08130B1F0089534
:1001D0008330B9F1843009F446C008958BB11BB85F
:1001E00085B1846085B98FE19EE40197F1F700C085
:1001F000000085B18B7F85B908958BB11BB88BB199
:1002000080618BB985B1846085B98FE19EE40197E7
:10021000F1F700C0000085B18B7F85B908958BB1DF
:100220001BB88BB180638BB985B1846085B98FE1D0
:100230009EE40197F1F700C0000085B18B7F85B97E
:1002400008958BB11BB88BB180678BB985B1846081
:1002500085B98FE19EE40197F1F700C0000085B1F8
:100260008B7F85B908958BB11BB88BB1806F8BB92B
:1002700085B1846085B98FE19EE40197F1F700C0F4
:10028000000085B18B7F85B90895F8940E946200C3
:10029000789480910201823089F130F4882309F446
:1002A0009CC08130F1F1F5CF8330A9F0843089F71B
:1002B00040E061E082E00E945B048FE39CE90197EB
:1002C000F1F700C0000085B18E7F85B90E947700EC
:1002D0000E94DE00DECF40E061E081E00E945B042E
:1002E0008FE39CE90197F1F700C0000085B18E7F94
:1002F00085B90E9477000E94DE00CBCF40E061E02C
:1003000080E00E945B048FE19EE40197F1F700C05A
:10031000000085B18D7F85B90E9477000E94DE00C4
:10032000B8CF40E061E085E00E945B049FEF23EDE1
:1003300080E3915020408040E1F700C0000040E0A1
:1003400061E084E00E945B049FEF23ED80E3915025
:1003500020408040E1F700C0000040E061E083E021
:100360000E945B049FEF23ED80E39150204080408A
:10037000E1F700C0000040E061E082E00E945B0421
:100380009FEF23ED80E3915020408040E1F700C0D3
:10039000000040E061E081E00E945B049FEF23EDFC
:1003A00080E3915020408040E1F700C0000040E031
:1003B00061E080E00E945B049FEF23ED80E39150B9
:1003C00020408040E1F700C0000082E080930201FD
:1003D00010920101109200015CCF40E061E088E0E2
:1003E0000E945B0456CF1F920F920FB60F921124FA
:1003F0008F9380910201823029F0309903C081E00F
:1004000080930201809102018230D9F431990CC0AD
:10041000809101018F5F80930101843029F4109253
:10042000000183E08093020132990BC080910001AA
:100430008F5F80930001843021F41092010180933A
:1004400002018BB382608BBB8F910F900FBE0F9018
:100450001F901895843071F5623091F06330E9F0A7
:10046000613009F055C114B89FEF95B9E8E6F0E0A6
:10047000808181608083EBE6F0E080819083089545
:1004800017B89FEF98B9E8E6F0E08081826080833A
:10049000ECE6F0E08081908308951AB89FEF9BB955
:1004A000E8E6F0E0808184608083EDE6F0E0808122
:1004B00090830895813009F05BC0A8E6B0E08C918C
:1004C00081608C93623021F128F4662349F0613019
:1004D00099F008956430A1F138F16530E9F108959B
:1004E00084B18E7F84B985B1816085B9EBE6F0E097
:1004F000808181608083089584B18D7F84B985B1C6
:10050000826085B9EBE6F0E08081826080830895A7
:1005100084B18B7F84B985B1846085B9EBE6F0E066
:10052000808184608083089584B1877F84B985B198
:10053000886085B9EBE6F0E080818860808308956B
:1005400084B18F7E84B985B1806185B9EBE6F0E036
:10055000808180618083089584B18F7D84B985B165
:10056000806285B9EBE6F0E0808180628083089547
:10057000823009F05BC0A8E6B0E08C9182608C9379
:10058000623021F128F4662349F0613099F0089532
:100590006430A1F138F16530E9F1089587B18E7FBB
:1005A00087B988B1816088B9ECE6F0E0808181602C
:1005B0008083089587B18D7F87B988B1826088B9BB
:1005C000ECE6F0E0808182608083089587B18B7FC4
:1005D00087B988B1846088B9ECE6F0E080818460F6
:1005E0008083089587B1877F87B988B1886088B98B
:1005F000ECE6F0E0808188608083089587B18F7E8B
:1006000087B988B1806188B9ECE6F0E080818061CB
:100610008083089587B18F7D87B988B1806288B95A
:10062000ECE6F0E08081806280830895833009F0F9
:100630006FC0A8E6B0E08C9184608C93862F90E028
:100640008830910508F064C0FC01EC5CFF4F0C940D
:1006500003058AB18E7F8AB98BB181608BB9EDE6D3
:10066000F0E080818160808308958AB18D7F8AB9AE
:100670008BB182608BB9EDE6F0E08081826080838F
:1006800008958AB18B7F8AB98BB184608BB9EDE60E
:10069000F0E080818460808308958AB1877F8AB981
:1006A0008BB188608BB9EDE6F0E080818860808353
:1006B00008958AB18F7E8AB98BB180618BB9EDE6DE
:1006C000F0E080818061808308958AB18F7D8AB94E
:1006D0008BB180628BB9EDE6F0E08081806280832F
:1006E00008958AB18F7B8AB98BB180648BB9EDE6AE
:1006F000F0E080818064808308958AB18F778AB921
:100700008BB180688BB9EDE6F0E0808180688083F2
:1007100008951092C1008430A9F4623049F063302A
:1007200059F0613009F0C6C08FEF84B915B808954B
:100730008FEF87B918B808958FEF8AB91BB8109258
:10074000C10008958130C1F56230D1F028F46623EC
:1007500049F0613071F00895643001F1C0F0653006
:1007600021F1089584B1816084B985B18E7F85B906
:10077000089584B1826084B985B18D7F85B908956B
:1007800084B1846084B985B18B7F85B9089584B1C3
:10079000886084B985B1877F85B9089584B1806107
:1007A00084B985B18F7E85B9089584B1806284B99A
:1007B00085B18F7D85B908958230C1F56230D1F061
:1007C00028F4662349F0613071F00895643001F136
:1007D000C0F0653021F1089587B1816087B988B193
:1007E0008E7F88B9089587B1826087B988B18D7F7F
:1007F00088B9089587B1846087B988B18B7F88B93B
:10080000089587B1886087B988B1877F88B90895CE
:1008100087B1806187B988B18F7E88B9089587B123
:10082000806287B988B18F7D88B90895833009F0D7
:1008300041C0862F90E088309105E0F5FC01E45C32
:10084000FF4F0C9403058AB181608AB98BB18E7F0A
:100850008BB908958AB182608AB98BB18D7F8BB9CB
:1008600008958AB184608AB98BB18B7F8BB9089562
:100870008AB188608AB98BB1877F8BB908958AB1B4
:1008800080618AB98BB18F7E8BB908958AB18062FD
:100890008AB98BB18F7D8BB908958AB180648AB98A
:1008A0008BB18F7B8BB908958AB180688AB98BB17F
:1008B0008F778BB9089590E08A30910508F048C091
:1008C000FC01EC5BFF4F0C9403058BB18F638BB97C
:1008D0008BB18F7B8BB93FC08BB186608BB98BB1ED
:1008E00086788BB938C08BB18B658BB98BB18B7D1A
:1008F0008BB931C08BB18F648BB98BB18F7C8BB9C5
:100900002AC08BB186668BB98BB1867E8BB923C02A
:100910008BB18D668BB98BB18D7E8BB91CC08BB1C1
:100920008D678BB98BB18D7F8BB915C08BB187600B
:100930008BB98BB187788BB90EC08BB18F678BB9B0
:100940000AC08BB18F668BB98BB18F7B8BB903C01B
:100950008BB180788BB9623081F1633021F06130E6
:1009600009F050C004C08BB180688BB90895423043
:10097000A1F028F4442349F0413059F0089544305F
:10098000A1F078F04530A9F0089585B1816085B96E
:10099000089585B1826085B9089585B1846085B96F
:1009A000089585B1886085B9089585B1806185B95C
:1009B000089585B1806285B908954230A1F028F488
:1009C000442349F0413059F008954430A1F078F0C3
:1009D0004530A9F0089588B1816088B9089588B13B
:1009E000826088B9089588B1846088B9089588B113
:1009F000886088B9089588B1806188B9089588B100
:100A0000806288B90895EE0FFF1F0590F491E02DE4
:060A10000994F894FFCFE9
:00000001FF
